:020000008C284A
:100008007E1480310B1D0F282000C80A0319C90A65
:10001800053095000B112700931E1528FC147C143D
:1000280093122000111C882806305202031C8628CF
:100038003F2571082000D1007008D0000A30F00078
:10004800F1015108F3005008F20040247108D10072
:100058007008D0005108CF005008CE005108CD00DC
:100068005008CC004E08AE004F08AF006630B00113
:10007800B101B201B301B401B501B6006430B701F2
:10008800B801B901BA01BA0ABB01BC01BD01BE0081
:10009800BF01C001C10100232F08CF002E08CE00E8
:1000A8004C08AE004D08AF006630B001B101B20196
:1000B800B301B401B501B6000A30B701B801B901FE
:1000C800BA000130BB01BC01BD01C101C001BF00C4
:1000D800F430BE0000232F08CD002E08CC004B08BA
:1000E8005106031D79284A085006031981287C14F3
:1000F8005108CB005008CA0082287C1006305202F2
:100108000318D201D20A1110111B11137E10090015
:100118008D280130D3004630FC0184000030850072
:100128000D309E257E10200099288C257F25EA24F5
:10013800D42415250025A42571256529FC1C7729BB
:1001480020008C1AFC1CB8282100A601A7018224D3
:100158002100A601A70165242100A601A7019F246B
:10016800FC107C102000D30A952521082000C70028
:10017800210020082000C600772920004E086225AB
:10018800652920004F082100A70020004E08210003
:10019800A6009F24652920004F082100A700200001
:1001A8004E082100A6006524652920004F0821007B
:1001B800A70020004E082100A600822465292000FF
:1001C8004F082100A70020004E082100A6009F2408
:1001D80020004F082100A70020004E082100A6009B
:1001E8008224652920004F082100A70020004E081E
:1001F8002100A6009F2420004F082100A70020000E
:100208004E082100A6006524652920004F0821001A
:10021800A70020004E082100A600652420004F08F2
:100228002100A70020004E082100A600822465298D
:1002380020004D082100AA0020004C082100A90038
:10024800F623652920004D082100AA0020004C084B
:100258002100A9004E23652920004D082100AA008D
:1002680020004C082100A9008F21652920004D0895
:100278002100AA0020004C082100A9009B22652922
:1002880020004D082100AA0020004C082100A900E8
:10029800AA23652920004D082100AA0020004C0847
:1002A8002100A900D023652920004D082100AA00BB
:1002B80020004C082100A900842365292000D301CF
:1002C800D30A95252000460821002002AD00200011
:1002D80047082100213BAE0000302E0233300319BD
:1002E8002D020318A228200053082100AD00AE01FA
:1002F8002E08003A0319812965292D08FF3E031CA1
:10030800652984000F3004020318652985315330AC
:10031800040782008C28AB01AC01AB01AC012C08AE
:10032800A7002B08A600822421002A08A10029087A
:10033800A000BC242B08053EAB0000302C3DAC00CF
:1003480000302C02643003192B02031C93296430FB
:10035800AB00AC012C08A7002B08A60082242100C2
:100368002A08A1002908A000BC242B08FB3EAB00EA
:10037800FF302C3DAC002B04031DAE29A601A701BC
:1003880082242100AB01AC012C08A7002B08A60091
:10039800652421002A08A1002908A000BC242B08F4
:1003A800053EAB0000302C3DAC0000302C02643020
:1003B80003192B02031CC8296430AB00AC012C08BC
:1003C800A7002B08A600652421002A08A1002908F7
:1003D800A000BC242B08FB3EAB00FF302C3DAC003A
:1003E8002B04031DE329A601A70165242100AB0105
:1003F800AC012C08A7002B08A6009F2421002A087E
:10040800A1002908A000BC242B08053EAB00003041
:100418002C3DAC0000302C02643003192B02031C65
:10042800FD296430AB00AC012C08A7002B08A600FE
:100438009F2421002A08A1002908A000BC242B0819
:10044800FB3EAB00FF302C3DAC002B04031D182AEB
:10045800A601A7019F2CA901A31F3F2AA009A10952
:10046800A209A309A00A0319A10A0319A20A0319D8
:10047800A30AA901A90AA71F4E2AA409A509A60922
:10048800A709A40A0319A50A0319A60A0319A70AA2
:100498000130A906AA01AB01AC01AD012308220471
:1004A800210420040319842AA801A80AA31B612A8D
:1004B800A035A10DA20DA30D592AAA35AB0DAC0D7F
:1004C800AD0D23082702031D732A22082602031DE7
:1004D800732A21082502031D732A20082402031CFD
:1004E8007E2A2008A4022108A53B2208A63B23084F
:1004F800A73B2A14A336A20CA10CA00CA80B612AB6
:1005080029080319922AAA09AB09AC09AD09AA0A54
:100518000319AB0A0319AC0A0319AD0A2D08A30085
:100528002C08A2002B08A1002A08A00008006430AB
:10053800AB00A601A70182242100A601A70165241A
:100548002100A601A7019F242100AC01FB30AB07C5
:100558002B08A600A701652421002C08A600A701E6
:100568009F2421002A08A1002908A000BC240530E6
:10057800AC0764302C02031CAA2AA601A701652433
:1005880064302100AB00AC01FB30AB072B08A600A0
:10059800A7019F2421002C08A600A701822421007E
:1005A8002A08A1002908A000BC240530AC07643043
:1005B8002C02031CC82AA601A7019F24643021002D
:1005C800AB00AC01FB30AB072B08A600A7018224C7
:1005D80021002C08A600A701652421002A08A100F3
:1005E8002908A000BC240530AC0764302C02031C89
:1005F800E62AA601A701822C3908A3003808A20020
:100608003708A1003608A0003208A0023308A13B31
:100618003408A23B3508A33B4108F7004008F60020
:100628003F08F5003E08F4003A08F4023B08F53BA1
:100638003C08F63B3D08F73B3108F3003008F20070
:100648002F08F1002E08F0003208F0023308F13BC1
:100658003408F23B3508F33B1B247308A7007208E3
:10066800A6007108A5007008A4002F2220083A07E8
:10067800C20021083B3DC30022083C3DC4002308BA
:100688003D3DC500B1004408B0004308AF00420832
:10069800AE0008006430A600A70182242100A6014C
:1006A800A70165242100A601A7019F2421002A088B
:1006B800A1002908A000BC24A601A7018224643057
:1006C8002100A600A70165242100A601A7019F24F7
:1006D80021002A08A1002908A000BC24A601A7011E
:1006E80082242100A601A701652464302100A60008
:1006F800A7019F2421002A08A1002908A000BC2CDA
:100708006430A600A70182242100A601A701652460
:1007180064302100A600A7019F2421002A08A10017
:100728002908A000BC24A601A70182246430210066
:10073800A600A701652464302100A600A7019F2414
:1007480021002A08A1002908A000BC2C6430A600BA
:10075800A701822464302100A600A7016524210096
:10076800A601A7019F2421002A08A1002908A000AA
:10077800BC24A601A701822464302100A600A70199
:10078800652464302100A600A7019F2421002A08BF
:10079800A1002908A000BC2C6430A600A70182246F
:1007A80064302100A600A70165242100A601A70145
:1007B8009F2421002A08A1002908A000BC24643035
:1007C800A600A70182242100A601A70165246430A0
:1007D8002100A600A7019F2421002A08A1002908BA
:1007E800A000BC2C6430A600A7018224643021003C
:1007F800A600A701652464302100A600A7019F2454
:1008080021002A08A1002908A000BC24A601A701EC
:1008180082242100A601A70165242100A601A701C1
:100828009F2421002A08A1002908A000BC2CF80157
:10083800F901FA01FB01701C292C7408F8077508E6
:10084800F93D7608FA3D7708FB3DF435F50DF60DD0
:10085800F70DF336F20CF10CF00C73087204710406
:100868007004031D1F2C7B08F3007A08F200790836
:10087800F1007808F0000800F401F501700871042F
:100888000319602CF601F60AF11B4D2CF035F10D19
:10089800472CF435F50D71087302031D552C7008AB
:1008A8007202031C5C2C7008F2027108F33B74148A
:1008B800F136F00CF60B4D2C7508F1007408F000B9
:1008C80008003B009B1321002708A1002608A00070
:1008D8000A30A200A3012A2521083B009400210028
:1008E80020083B0093009B170B302100A8006230C2
:1008F800890B7C2CA80B7C2C000008003B00AB1358
:1009080021002708A1002608A0000A30A200A301A0
:100918002A2521083B00A400210020083B00A30051
:10092800AB170B302100A8006230890B992CA80B5B
:10093800992C000008003B00BB1321002708A100E8
:100948002608A0000A30A200A3012A2521083B009E
:10095800B400210020083B00B300BB170B30210076
:10096800A8006230890BB62CA80BB62C0000080032
:1009780020082104031908007C18D12C0B30210011
:10098800A2006230890BC62CA20BC62C00000130D5
:100998002100A0020030A13BBC2CA001A101BC2C6D
:1009A8003B00910192019301940103309600E830D5
:1009B80095001B119B11A01220131E109E101E16CD
:1009C8009E121E139B171B171B12080023000C10E6
:1009D8008C100C110C1624008C0121000C108C10AA
:1009E8000C110C168C162700921691128B150B10F1
:1009F80093128B170B170800B101B201B301B401B0
:100A08000330B600E830B5003B11BB11C0124013EB
:100A18003E10BE103E16BE123E13BB173B173B12CC
:100A28000800A101A201A301A4010330A600E83037
:100A3800A5002B11AB11B01230132E10AE102E16CC
:100A4800AE122E13AB172B172B120800A401A50109
:100A5800201C322D2208A4072308A53DA235A30D8A
:100A6800A136A00C20082104031D2C2D2508A10067
:100A78002408A000080021009D149D18412D1C0881
:100A8800F500F40174081B04F2007508F3007208FD
:100A9800F4007308F500F1007408F0000800C1289C
:100AA800C528CF28D928E328F62809291C2926296A
:100AB80030293A2944294E29582962292100A900B8
:100AC800A600A7019F2421002908A600A7016524E4
:100AD80021002908A600A701822C200018139813CA
:100AE8001816981697019601181411102100111460
:100AF8008B170B17080095129511151595101510E1
:100B08000530200095008B160B118B170B1708006A
:100B18002100991799111916991619171910991072
:100B28000800200049082100A100200048082100F1
:100B3800A0000800640080010131890B9F2D00345A
:0C0B48000D3021009D00E0309E000800F0
:020000040001F9
:04000E00A4F9FFFE54
:00000001FF
